{
  "_format": "hh-sol-artifact-1",
  "contractName": "Voting",
  "sourceName": "contracts/Voting.sol",
  "abi": [
    {
      "inputs": [
        {
          "internalType": "string[]",
          "name": "_names",
          "type": "string[]"
        },
        {
          "internalType": "string[]",
          "name": "_parties",
          "type": "string[]"
        },
        {
          "internalType": "string[]",
          "name": "_imageHashes",
          "type": "string[]"
        },
        {
          "internalType": "uint256",
          "name": "_durationInMinutes",
          "type": "uint256"
        }
      ],
      "stateMutability": "nonpayable",
      "type": "constructor"
    },
    {
      "anonymous": false,
      "inputs": [
        {
          "indexed": true,
          "internalType": "address",
          "name": "voter",
          "type": "address"
        },
        {
          "indexed": true,
          "internalType": "uint256",
          "name": "candidateId",
          "type": "uint256"
        }
      ],
      "name": "VoteCast",
      "type": "event"
    },
    {
      "inputs": [
        {
          "internalType": "uint256",
          "name": "",
          "type": "uint256"
        }
      ],
      "name": "candidates",
      "outputs": [
        {
          "internalType": "uint256",
          "name": "id",
          "type": "uint256"
        },
        {
          "internalType": "string",
          "name": "name",
          "type": "string"
        },
        {
          "internalType": "string",
          "name": "party",
          "type": "string"
        },
        {
          "internalType": "string",
          "name": "imageHash",
          "type": "string"
        },
        {
          "internalType": "uint256",
          "name": "voteCount",
          "type": "uint256"
        }
      ],
      "stateMutability": "view",
      "type": "function"
    },
    {
      "inputs": [],
      "name": "endTime",
      "outputs": [
        {
          "internalType": "uint256",
          "name": "",
          "type": "uint256"
        }
      ],
      "stateMutability": "view",
      "type": "function"
    },
    {
      "inputs": [],
      "name": "getCandidates",
      "outputs": [
        {
          "components": [
            {
              "internalType": "uint256",
              "name": "id",
              "type": "uint256"
            },
            {
              "internalType": "string",
              "name": "name",
              "type": "string"
            },
            {
              "internalType": "string",
              "name": "party",
              "type": "string"
            },
            {
              "internalType": "string",
              "name": "imageHash",
              "type": "string"
            },
            {
              "internalType": "uint256",
              "name": "voteCount",
              "type": "uint256"
            }
          ],
          "internalType": "struct Voting.Candidate[]",
          "name": "",
          "type": "tuple[]"
        }
      ],
      "stateMutability": "view",
      "type": "function"
    },
    {
      "inputs": [],
      "name": "getResults",
      "outputs": [
        {
          "internalType": "uint256[]",
          "name": "",
          "type": "uint256[]"
        }
      ],
      "stateMutability": "view",
      "type": "function"
    },
    {
      "inputs": [
        {
          "internalType": "address",
          "name": "",
          "type": "address"
        }
      ],
      "name": "hasVoted",
      "outputs": [
        {
          "internalType": "bool",
          "name": "",
          "type": "bool"
        }
      ],
      "stateMutability": "view",
      "type": "function"
    },
    {
      "inputs": [],
      "name": "startTime",
      "outputs": [
        {
          "internalType": "uint256",
          "name": "",
          "type": "uint256"
        }
      ],
      "stateMutability": "view",
      "type": "function"
    },
    {
      "inputs": [
        {
          "internalType": "uint256",
          "name": "candidateId",
          "type": "uint256"
        }
      ],
      "name": "vote",
      "outputs": [],
      "stateMutability": "nonpayable",
      "type": "function"
    }
  ],
  "bytecode": "0x60806040523480156200001157600080fd5b5060405162001b2738038062001b278339818101604052810190620000379190620004fe565b60008451116200007e576040517f08c379a000000000000000000000000000000000000000000000000000000000815260040162000075906200062e565b60405180910390fd5b8251845114801562000091575081518451145b620000d3576040517f08c379a0000000000000000000000000000000000000000000000000000000008152600401620000ca90620006a0565b60405180910390fd5b42600281905550603c81620000e99190620006f1565b600254620000f891906200073c565b60038190555060005b8451811015620002295760016040518060a0016040528083815260200187848151811062000134576200013362000777565b5b6020026020010151815260200186848151811062000157576200015662000777565b5b602002602001015181526020018584815181106200017a576200017962000777565b5b6020026020010151815260200160008152509080600181540180825580915050600190039060005260206000209060050201600090919091909150600082015181600001556020820151816001019081620001d69190620009e7565b506040820151816002019081620001ee9190620009e7565b506060820151816003019081620002069190620009e7565b506080820151816004015550508080620002209062000ace565b91505062000101565b505050505062000b1b565b6000604051905090565b600080fd5b600080fd5b600080fd5b6000601f19601f8301169050919050565b7f4e487b7100000000000000000000000000000000000000000000000000000000600052604160045260246000fd5b62000298826200024d565b810181811067ffffffffffffffff82111715620002ba57620002b96200025e565b5b80604052505050565b6000620002cf62000234565b9050620002dd82826200028d565b919050565b600067ffffffffffffffff8211156200030057620002ff6200025e565b5b602082029050602081019050919050565b600080fd5b600080fd5b600067ffffffffffffffff8211156200033957620003386200025e565b5b62000344826200024d565b9050602081019050919050565b60005b838110156200037157808201518184015260208101905062000354565b60008484015250505050565b6000620003946200038e846200031b565b620002c3565b905082815260208101848484011115620003b357620003b262000316565b5b620003c084828562000351565b509392505050565b600082601f830112620003e057620003df62000248565b5b8151620003f28482602086016200037d565b91505092915050565b6000620004126200040c84620002e2565b620002c3565b9050808382526020820190506020840283018581111562000438576200043762000311565b5b835b818110156200048657805167ffffffffffffffff81111562000461576200046062000248565b5b808601620004708982620003c8565b855260208501945050506020810190506200043a565b5050509392505050565b600082601f830112620004a857620004a762000248565b5b8151620004ba848260208601620003fb565b91505092915050565b6000819050919050565b620004d881620004c3565b8114620004e457600080fd5b50565b600081519050620004f881620004cd565b92915050565b600080600080608085870312156200051b576200051a6200023e565b5b600085015167ffffffffffffffff8111156200053c576200053b62000243565b5b6200054a8782880162000490565b945050602085015167ffffffffffffffff8111156200056e576200056d62000243565b5b6200057c8782880162000490565b935050604085015167ffffffffffffffff811115620005a0576200059f62000243565b5b620005ae8782880162000490565b9250506060620005c187828801620004e7565b91505092959194509250565b600082825260208201905092915050565b7f4e6f2063616e646964617465732070726f76696465642e000000000000000000600082015250565b600062000616601783620005cd565b91506200062382620005de565b602082019050919050565b60006020820190508181036000830152620006498162000607565b9050919050565b7f4d69736d617463686564206172726179732e0000000000000000000000000000600082015250565b600062000688601283620005cd565b9150620006958262000650565b602082019050919050565b60006020820190508181036000830152620006bb8162000679565b9050919050565b7f4e487b7100000000000000000000000000000000000000000000000000000000600052601160045260246000fd5b6000620006fe82620004c3565b91506200070b83620004c3565b92508282026200071b81620004c3565b91508282048414831517620007355762000734620006c2565b5b5092915050565b60006200074982620004c3565b91506200075683620004c3565b9250828201905080821115620007715762000770620006c2565b5b92915050565b7f4e487b7100000000000000000000000000000000000000000000000000000000600052603260045260246000fd5b600081519050919050565b7f4e487b7100000000000000000000000000000000000000000000000000000000600052602260045260246000fd5b60006002820490506001821680620007f957607f821691505b6020821081036200080f576200080e620007b1565b5b50919050565b60008190508160005260206000209050919050565b60006020601f8301049050919050565b600082821b905092915050565b600060088302620008797fffffffffffffffffffffffffffffffffffffffffffffffffffffffffffffffff826200083a565b6200088586836200083a565b95508019841693508086168417925050509392505050565b6000819050919050565b6000620008c8620008c2620008bc84620004c3565b6200089d565b620004c3565b9050919050565b6000819050919050565b620008e483620008a7565b620008fc620008f382620008cf565b84845462000847565b825550505050565b600090565b6200091362000904565b62000920818484620008d9565b505050565b5b8181101562000948576200093c60008262000909565b60018101905062000926565b5050565b601f8211156200099757620009618162000815565b6200096c846200082a565b810160208510156200097c578190505b620009946200098b856200082a565b83018262000925565b50505b505050565b600082821c905092915050565b6000620009bc600019846008026200099c565b1980831691505092915050565b6000620009d78383620009a9565b9150826002028217905092915050565b620009f282620007a6565b67ffffffffffffffff81111562000a0e5762000a0d6200025e565b5b62000a1a8254620007e0565b62000a278282856200094c565b600060209050601f83116001811462000a5f576000841562000a4a578287015190505b62000a568582620009c9565b86555062000ac6565b601f19841662000a6f8662000815565b60005b8281101562000a995784890151825560018201915060208501945060208101905062000a72565b8683101562000ab9578489015162000ab5601f891682620009a9565b8355505b6001600288020188555050505b505050505050565b600062000adb82620004c3565b91507fffffffffffffffffffffffffffffffffffffffffffffffffffffffffffffffff820362000b105762000b0f620006c2565b5b600182019050919050565b610ffc8062000b2b6000396000f3fe608060405234801561001057600080fd5b506004361061007d5760003560e01c80633197cbb61161005b5780633197cbb6146100ec5780633477ee2e1461010a5780634717f97c1461013e57806378e979251461015c5761007d565b80630121b93f1461008257806306a49fce1461009e57806309eef43e146100bc575b600080fd5b61009c600480360381019061009791906108ab565b61017a565b005b6100a6610379565b6040516100b39190610abd565b60405180910390f35b6100d660048036038101906100d19190610b3d565b6105a2565b6040516100e39190610b85565b60405180910390f35b6100f46105c2565b6040516101019190610baf565b60405180910390f35b610124600480360381019061011f91906108ab565b6105c8565b604051610135959493929190610c14565b60405180910390f35b6101466107a6565b6040516101539190610d2b565b60405180910390f35b61016461086a565b6040516101719190610baf565b60405180910390f35b6000803373ffffffffffffffffffffffffffffffffffffffff1673ffffffffffffffffffffffffffffffffffffffff16815260200190815260200160002060009054906101000a900460ff1615610206576040517f08c379a00000000000000000000000000000000000000000000000000000000081526004016101fd90610d99565b60405180910390fd5b600254421015801561021a57506003544211155b610259576040517f08c379a000000000000000000000000000000000000000000000000000000000815260040161025090610e05565b60405180910390fd5b60018054905081106102a0576040517f08c379a000000000000000000000000000000000000000000000000000000000815260040161029790610e71565b60405180910390fd5b60016000803373ffffffffffffffffffffffffffffffffffffffff1673ffffffffffffffffffffffffffffffffffffffff16815260200190815260200160002060006101000a81548160ff0219169083151502179055506001818154811061030b5761030a610e91565b5b9060005260206000209060050201600401600081548092919061032d90610eef565b9190505550803373ffffffffffffffffffffffffffffffffffffffff167fa36cc2bebb74db33e9f88110a07ef56e1b31b24b4c4f51b54b1664266e29f45b60405160405180910390a350565b60606001805480602002602001604051908101604052809291908181526020016000905b8282101561059957838290600052602060002090600502016040518060a0016040529081600082015481526020016001820180546103da90610f66565b80601f016020809104026020016040519081016040528092919081815260200182805461040690610f66565b80156104535780601f1061042857610100808354040283529160200191610453565b820191906000526020600020905b81548152906001019060200180831161043657829003601f168201915b5050505050815260200160028201805461046c90610f66565b80601f016020809104026020016040519081016040528092919081815260200182805461049890610f66565b80156104e55780601f106104ba576101008083540402835291602001916104e5565b820191906000526020600020905b8154815290600101906020018083116104c857829003601f168201915b505050505081526020016003820180546104fe90610f66565b80601f016020809104026020016040519081016040528092919081815260200182805461052a90610f66565b80156105775780601f1061054c57610100808354040283529160200191610577565b820191906000526020600020905b81548152906001019060200180831161055a57829003601f168201915b505050505081526020016004820154815250508152602001906001019061039d565b50505050905090565b60006020528060005260406000206000915054906101000a900460ff1681565b60035481565b600181815481106105d857600080fd5b906000526020600020906005020160009150905080600001549080600101805461060190610f66565b80601f016020809104026020016040519081016040528092919081815260200182805461062d90610f66565b801561067a5780601f1061064f5761010080835404028352916020019161067a565b820191906000526020600020905b81548152906001019060200180831161065d57829003601f168201915b50505050509080600201805461068f90610f66565b80601f01602080910402602001604051908101604052809291908181526020018280546106bb90610f66565b80156107085780601f106106dd57610100808354040283529160200191610708565b820191906000526020600020905b8154815290600101906020018083116106eb57829003601f168201915b50505050509080600301805461071d90610f66565b80601f016020809104026020016040519081016040528092919081815260200182805461074990610f66565b80156107965780601f1061076b57610100808354040283529160200191610796565b820191906000526020600020905b81548152906001019060200180831161077957829003601f168201915b5050505050908060040154905085565b6060600060018054905067ffffffffffffffff8111156107c9576107c8610f97565b5b6040519080825280602002602001820160405280156107f75781602001602082028036833780820191505090505b50905060005b600180549050811015610862576001818154811061081e5761081d610e91565b5b90600052602060002090600502016004015482828151811061084357610842610e91565b5b602002602001018181525050808061085a90610eef565b9150506107fd565b508091505090565b60025481565b600080fd5b6000819050919050565b61088881610875565b811461089357600080fd5b50565b6000813590506108a58161087f565b92915050565b6000602082840312156108c1576108c0610870565b5b60006108cf84828501610896565b91505092915050565b600081519050919050565b600082825260208201905092915050565b6000819050602082019050919050565b61090d81610875565b82525050565b600081519050919050565b600082825260208201905092915050565b60005b8381101561094d578082015181840152602081019050610932565b60008484015250505050565b6000601f19601f8301169050919050565b600061097582610913565b61097f818561091e565b935061098f81856020860161092f565b61099881610959565b840191505092915050565b600060a0830160008301516109bb6000860182610904565b50602083015184820360208601526109d3828261096a565b915050604083015184820360408601526109ed828261096a565b91505060608301518482036060860152610a07828261096a565b9150506080830151610a1c6080860182610904565b508091505092915050565b6000610a3383836109a3565b905092915050565b6000602082019050919050565b6000610a53826108d8565b610a5d81856108e3565b935083602082028501610a6f856108f4565b8060005b85811015610aab5784840389528151610a8c8582610a27565b9450610a9783610a3b565b925060208a01995050600181019050610a73565b50829750879550505050505092915050565b60006020820190508181036000830152610ad78184610a48565b905092915050565b600073ffffffffffffffffffffffffffffffffffffffff82169050919050565b6000610b0a82610adf565b9050919050565b610b1a81610aff565b8114610b2557600080fd5b50565b600081359050610b3781610b11565b92915050565b600060208284031215610b5357610b52610870565b5b6000610b6184828501610b28565b91505092915050565b60008115159050919050565b610b7f81610b6a565b82525050565b6000602082019050610b9a6000830184610b76565b92915050565b610ba981610875565b82525050565b6000602082019050610bc46000830184610ba0565b92915050565b600082825260208201905092915050565b6000610be682610913565b610bf08185610bca565b9350610c0081856020860161092f565b610c0981610959565b840191505092915050565b600060a082019050610c296000830188610ba0565b8181036020830152610c3b8187610bdb565b90508181036040830152610c4f8186610bdb565b90508181036060830152610c638185610bdb565b9050610c726080830184610ba0565b9695505050505050565b600081519050919050565b600082825260208201905092915050565b6000819050602082019050919050565b6000610cb48383610904565b60208301905092915050565b6000602082019050919050565b6000610cd882610c7c565b610ce28185610c87565b9350610ced83610c98565b8060005b83811015610d1e578151610d058882610ca8565b9750610d1083610cc0565b925050600181019050610cf1565b5085935050505092915050565b60006020820190508181036000830152610d458184610ccd565b905092915050565b7f596f75206861766520616c726561647920766f7465642e000000000000000000600082015250565b6000610d83601783610bca565b9150610d8e82610d4d565b602082019050919050565b60006020820190508181036000830152610db281610d76565b9050919050565b7f456c656374696f6e206973206e6f74206163746976652e000000000000000000600082015250565b6000610def601783610bca565b9150610dfa82610db9565b602082019050919050565b60006020820190508181036000830152610e1e81610de2565b9050919050565b7f496e76616c69642063616e6469646174652049442e0000000000000000000000600082015250565b6000610e5b601583610bca565b9150610e6682610e25565b602082019050919050565b60006020820190508181036000830152610e8a81610e4e565b9050919050565b7f4e487b7100000000000000000000000000000000000000000000000000000000600052603260045260246000fd5b7f4e487b7100000000000000000000000000000000000000000000000000000000600052601160045260246000fd5b6000610efa82610875565b91507fffffffffffffffffffffffffffffffffffffffffffffffffffffffffffffffff8203610f2c57610f2b610ec0565b5b600182019050919050565b7f4e487b7100000000000000000000000000000000000000000000000000000000600052602260045260246000fd5b60006002820490506001821680610f7e57607f821691505b602082108103610f9157610f90610f37565b5b50919050565b7f4e487b7100000000000000000000000000000000000000000000000000000000600052604160045260246000fdfea264697066735822122081a845350661dcc5edb67dd9f8501b227364865cfd0ac336063f28c20b77742464736f6c63430008140033",
  "linkReferences": {},
  "deployedLinkReferences": {}
}